{
  "_format": "hh-sol-artifact-1",
  "contractName": "Auth",
  "sourceName": "contracts/Auth.sol",
  "abi": [
    {
      "anonymous": false,
      "inputs": [
        {
          "indexed": false,
          "internalType": "address",
          "name": "userAddress",
          "type": "address"
        },
        {
          "indexed": false,
          "internalType": "string",
          "name": "username",
          "type": "string"
        }
      ],
      "name": "UserLoggedIn",
      "type": "event"
    },
    {
      "anonymous": false,
      "inputs": [
        {
          "indexed": false,
          "internalType": "address",
          "name": "userAddress",
          "type": "address"
        },
        {
          "indexed": false,
          "internalType": "string",
          "name": "username",
          "type": "string"
        }
      ],
      "name": "UserRegistered",
      "type": "event"
    },
    {
      "inputs": [
        {
          "internalType": "address",
          "name": "_userAddress",
          "type": "address"
        }
      ],
      "name": "getUser",
      "outputs": [
        {
          "internalType": "string",
          "name": "",
          "type": "string"
        },
        {
          "internalType": "address",
          "name": "",
          "type": "address"
        }
      ],
      "stateMutability": "view",
      "type": "function"
    },
    {
      "inputs": [
        {
          "internalType": "string",
          "name": "_username",
          "type": "string"
        },
        {
          "internalType": "string",
          "name": "_password",
          "type": "string"
        }
      ],
      "name": "login",
      "outputs": [
        {
          "internalType": "address",
          "name": "",
          "type": "address"
        }
      ],
      "stateMutability": "view",
      "type": "function"
    },
    {
      "inputs": [
        {
          "internalType": "string",
          "name": "_username",
          "type": "string"
        },
        {
          "internalType": "string",
          "name": "_password",
          "type": "string"
        }
      ],
      "name": "register",
      "outputs": [],
      "stateMutability": "nonpayable",
      "type": "function"
    }
  ],
  "bytecode": "0x608060405234801561001057600080fd5b506111f6806100206000396000f3fe608060405234801561001057600080fd5b50600436106100415760003560e01c80633ffbd47f1461004657806358467dbc146100625780636f77926b14610092575b600080fd5b610060600480360381019061005b9190610974565b6100c3565b005b61007c60048036038101906100779190610974565b6104bf565b6040516100899190610a36565b60405180910390f35b6100ac60048036038101906100a79190610a7d565b61073c565b6040516100ba929190610b3a565b60405180910390f35b60008484905011610109576040517f08c379a000000000000000000000000000000000000000000000000000000000815260040161010090610bb6565b60405180910390fd5b6000828290501161014f576040517f08c379a000000000000000000000000000000000000000000000000000000000815260040161014690610c22565b60405180910390fd5b600073ffffffffffffffffffffffffffffffffffffffff166000803373ffffffffffffffffffffffffffffffffffffffff1673ffffffffffffffffffffffffffffffffffffffff16815260200190815260200160002060020160009054906101000a900473ffffffffffffffffffffffffffffffffffffffff1673ffffffffffffffffffffffffffffffffffffffff161461021f576040517f08c379a000000000000000000000000000000000000000000000000000000000815260040161021690610c8e565b60405180910390fd5b600073ffffffffffffffffffffffffffffffffffffffff1660018585604051610249929190610ced565b908152602001604051809103902060009054906101000a900473ffffffffffffffffffffffffffffffffffffffff1673ffffffffffffffffffffffffffffffffffffffff16146102ce576040517f08c379a00000000000000000000000000000000000000000000000000000000081526004016102c590610d52565b60405180910390fd5b600082826040516020016102e3929190610ced565b6040516020818303038152906040528051906020012090506000604051806060016040528087878080601f016020809104026020016040519081016040528093929190818152602001838380828437600081840152601f19601f8201169050808301925050505050505081526020018381526020013373ffffffffffffffffffffffffffffffffffffffff168152509050806000803373ffffffffffffffffffffffffffffffffffffffff1673ffffffffffffffffffffffffffffffffffffffff16815260200190815260200160002060008201518160000190816103c89190610fb7565b506020820151816001015560408201518160020160006101000a81548173ffffffffffffffffffffffffffffffffffffffff021916908373ffffffffffffffffffffffffffffffffffffffff1602179055509050503360018787604051610430929190610ced565b908152602001604051809103902060006101000a81548173ffffffffffffffffffffffffffffffffffffffff021916908373ffffffffffffffffffffffffffffffffffffffff1602179055507f48cac28ad4dc618e15f4c2dd5e97751182f166de97b25618318b2112aa951a2f3387876040516104af939291906110b6565b60405180910390a1505050505050565b600080600186866040516104d4929190610ced565b908152602001604051809103902060009054906101000a900473ffffffffffffffffffffffffffffffffffffffff16905060008060008373ffffffffffffffffffffffffffffffffffffffff1673ffffffffffffffffffffffffffffffffffffffff16815260200190815260200160002060405180606001604052908160008201805461056090610dd0565b80601f016020809104026020016040519081016040528092919081815260200182805461058c90610dd0565b80156105d95780601f106105ae576101008083540402835291602001916105d9565b820191906000526020600020905b8154815290600101906020018083116105bc57829003601f168201915b50505050508152602001600182015481526020016002820160009054906101000a900473ffffffffffffffffffffffffffffffffffffffff1673ffffffffffffffffffffffffffffffffffffffff1673ffffffffffffffffffffffffffffffffffffffff16815250509050600073ffffffffffffffffffffffffffffffffffffffff16816040015173ffffffffffffffffffffffffffffffffffffffff16036106b7576040517f08c379a00000000000000000000000000000000000000000000000000000000081526004016106ae90611134565b60405180910390fd5b600085856040516020016106cc929190610ced565b6040516020818303038152906040528051906020012090508082602001511461072a576040517f08c379a0000000000000000000000000000000000000000000000000000000008152600401610721906111a0565b60405180910390fd5b81604001519350505050949350505050565b60606000806000808573ffffffffffffffffffffffffffffffffffffffff1673ffffffffffffffffffffffffffffffffffffffff16815260200190815260200160002060405180606001604052908160008201805461079a90610dd0565b80601f01602080910402602001604051908101604052809291908181526020018280546107c690610dd0565b80156108135780601f106107e857610100808354040283529160200191610813565b820191906000526020600020905b8154815290600101906020018083116107f657829003601f168201915b50505050508152602001600182015481526020016002820160009054906101000a900473ffffffffffffffffffffffffffffffffffffffff1673ffffffffffffffffffffffffffffffffffffffff1673ffffffffffffffffffffffffffffffffffffffff16815250509050600073ffffffffffffffffffffffffffffffffffffffff16816040015173ffffffffffffffffffffffffffffffffffffffff16036108f1576040517f08c379a00000000000000000000000000000000000000000000000000000000081526004016108e890611134565b60405180910390fd5b806000015181604001519250925050915091565b600080fd5b600080fd5b600080fd5b600080fd5b600080fd5b60008083601f8401126109345761093361090f565b5b8235905067ffffffffffffffff81111561095157610950610914565b5b60208301915083600182028301111561096d5761096c610919565b5b9250929050565b6000806000806040858703121561098e5761098d610905565b5b600085013567ffffffffffffffff8111156109ac576109ab61090a565b5b6109b88782880161091e565b9450945050602085013567ffffffffffffffff8111156109db576109da61090a565b5b6109e78782880161091e565b925092505092959194509250565b600073ffffffffffffffffffffffffffffffffffffffff82169050919050565b6000610a20826109f5565b9050919050565b610a3081610a15565b82525050565b6000602082019050610a4b6000830184610a27565b92915050565b610a5a81610a15565b8114610a6557600080fd5b50565b600081359050610a7781610a51565b92915050565b600060208284031215610a9357610a92610905565b5b6000610aa184828501610a68565b91505092915050565b600081519050919050565b600082825260208201905092915050565b60005b83811015610ae4578082015181840152602081019050610ac9565b60008484015250505050565b6000601f19601f8301169050919050565b6000610b0c82610aaa565b610b168185610ab5565b9350610b26818560208601610ac6565b610b2f81610af0565b840191505092915050565b60006040820190508181036000830152610b548185610b01565b9050610b636020830184610a27565b9392505050565b7f557365726e616d652063616e6e6f7420626520656d7074790000000000000000600082015250565b6000610ba0601883610ab5565b9150610bab82610b6a565b602082019050919050565b60006020820190508181036000830152610bcf81610b93565b9050919050565b7f50617373776f72642063616e6e6f7420626520656d7074790000000000000000600082015250565b6000610c0c601883610ab5565b9150610c1782610bd6565b602082019050919050565b60006020820190508181036000830152610c3b81610bff565b9050919050565b7f4164647265737320616c72656164792072656769737465726564000000000000600082015250565b6000610c78601a83610ab5565b9150610c8382610c42565b602082019050919050565b60006020820190508181036000830152610ca781610c6b565b9050919050565b600081905092915050565b82818337600083830152505050565b6000610cd48385610cae565b9350610ce1838584610cb9565b82840190509392505050565b6000610cfa828486610cc8565b91508190509392505050565b7f557365726e616d6520616c72656164792074616b656e00000000000000000000600082015250565b6000610d3c601683610ab5565b9150610d4782610d06565b602082019050919050565b60006020820190508181036000830152610d6b81610d2f565b9050919050565b7f4e487b7100000000000000000000000000000000000000000000000000000000600052604160045260246000fd5b7f4e487b7100000000000000000000000000000000000000000000000000000000600052602260045260246000fd5b60006002820490506001821680610de857607f821691505b602082108103610dfb57610dfa610da1565b5b50919050565b60008190508160005260206000209050919050565b60006020601f8301049050919050565b600082821b905092915050565b600060088302610e637fffffffffffffffffffffffffffffffffffffffffffffffffffffffffffffffff82610e26565b610e6d8683610e26565b95508019841693508086168417925050509392505050565b6000819050919050565b6000819050919050565b6000610eb4610eaf610eaa84610e85565b610e8f565b610e85565b9050919050565b6000819050919050565b610ece83610e99565b610ee2610eda82610ebb565b848454610e33565b825550505050565b600090565b610ef7610eea565b610f02818484610ec5565b505050565b5b81811015610f2657610f1b600082610eef565b600181019050610f08565b5050565b601f821115610f6b57610f3c81610e01565b610f4584610e16565b81016020851015610f54578190505b610f68610f6085610e16565b830182610f07565b50505b505050565b600082821c905092915050565b6000610f8e60001984600802610f70565b1980831691505092915050565b6000610fa78383610f7d565b9150826002028217905092915050565b610fc082610aaa565b67ffffffffffffffff811115610fd957610fd8610d72565b5b610fe38254610dd0565b610fee828285610f2a565b600060209050601f831160018114611021576000841561100f578287015190505b6110198582610f9b565b865550611081565b601f19841661102f86610e01565b60005b8281101561105757848901518255600182019150602085019450602081019050611032565b868310156110745784890151611070601f891682610f7d565b8355505b6001600288020188555050505b505050505050565b60006110958385610ab5565b93506110a2838584610cb9565b6110ab83610af0565b840190509392505050565b60006040820190506110cb6000830186610a27565b81810360208301526110de818486611089565b9050949350505050565b7f55736572206e6f7420666f756e64000000000000000000000000000000000000600082015250565b600061111e600e83610ab5565b9150611129826110e8565b602082019050919050565b6000602082019050818103600083015261114d81611111565b9050919050565b7f496e76616c69642070617373776f726400000000000000000000000000000000600082015250565b600061118a601083610ab5565b915061119582611154565b602082019050919050565b600060208201905081810360008301526111b98161117d565b905091905056fea2646970667358221220900539e71e3fcd628da27cc5974a6c7355add38306efd23af33e3818d7b156c364736f6c63430008180033",
  "linkReferences": {},
  "deployedLinkReferences": {}
}