{
  "_format": "hh-sol-artifact-1",
  "contractName": "Food",
  "sourceName": "contracts/Food.sol",
  "abi": [
    {
      "inputs": [],
      "stateMutability": "nonpayable",
      "type": "constructor"
    },
    {
      "inputs": [
        {
          "internalType": "string",
          "name": "foodUrl",
          "type": "string"
        },
        {
          "internalType": "string",
          "name": "foodName",
          "type": "string"
        },
        {
          "internalType": "string",
          "name": "originCountry",
          "type": "string"
        }
      ],
      "name": "addFood",
      "outputs": [],
      "stateMutability": "nonpayable",
      "type": "function"
    },
    {
      "inputs": [],
      "name": "getAllFoods",
      "outputs": [
        {
          "components": [
            {
              "internalType": "address",
              "name": "owner",
              "type": "address"
            },
            {
              "internalType": "string",
              "name": "foodUrl",
              "type": "string"
            },
            {
              "internalType": "string",
              "name": "foodName",
              "type": "string"
            },
            {
              "internalType": "string",
              "name": "originCountry",
              "type": "string"
            }
          ],
          "internalType": "struct Food.FoodItem[]",
          "name": "",
          "type": "tuple[]"
        }
      ],
      "stateMutability": "view",
      "type": "function"
    },
    {
      "inputs": [],
      "name": "getFoodsByOwner",
      "outputs": [
        {
          "components": [
            {
              "internalType": "address",
              "name": "owner",
              "type": "address"
            },
            {
              "internalType": "string",
              "name": "foodUrl",
              "type": "string"
            },
            {
              "internalType": "string",
              "name": "foodName",
              "type": "string"
            },
            {
              "internalType": "string",
              "name": "originCountry",
              "type": "string"
            }
          ],
          "internalType": "struct Food.FoodItem[]",
          "name": "",
          "type": "tuple[]"
        }
      ],
      "stateMutability": "view",
      "type": "function"
    }
  ],
  "bytecode": "0x608060405234801561001057600080fd5b50611007806100206000396000f3fe608060405234801561001057600080fd5b50600436106100415760003560e01c806391c625ad14610046578063af78a62214610062578063b9b5aae614610080575b600080fd5b610060600480360381019061005b919061099b565b61009e565b005b61006a610190565b6040516100779190610c35565b60405180910390f35b610088610598565b6040516100959190610c35565b60405180910390f35b600060405180608001604052803373ffffffffffffffffffffffffffffffffffffffff16815260200185815260200184815260200183815250908060018154018082558091505060019003906000526020600020906004020160009091909190915060008201518160000160006101000a81548173ffffffffffffffffffffffffffffffffffffffff021916908373ffffffffffffffffffffffffffffffffffffffff160217905550602082015181600101908161015c9190610e6d565b5060408201518160020190816101729190610e6d565b5060608201518160030190816101889190610e6d565b505050505050565b60606000805b600080549050811015610238573373ffffffffffffffffffffffffffffffffffffffff16600082815481106101ce576101cd610f3f565b5b906000526020600020906004020160000160009054906101000a900473ffffffffffffffffffffffffffffffffffffffff1673ffffffffffffffffffffffffffffffffffffffff160361022b576001826102289190610f9d565b91505b8080600101915050610196565b5060008167ffffffffffffffff81111561025557610254610870565b5b60405190808252806020026020018201604052801561028e57816020015b61027b610803565b8152602001906001900390816102735790505b5090506000805b60008054905081101561058e573373ffffffffffffffffffffffffffffffffffffffff16600082815481106102cd576102cc610f3f565b5b906000526020600020906004020160000160009054906101000a900473ffffffffffffffffffffffffffffffffffffffff1673ffffffffffffffffffffffffffffffffffffffff1603610581576000818154811061032e5761032d610f3f565b5b90600052602060002090600402016040518060800160405290816000820160009054906101000a900473ffffffffffffffffffffffffffffffffffffffff1673ffffffffffffffffffffffffffffffffffffffff1673ffffffffffffffffffffffffffffffffffffffff1681526020016001820180546103ad90610c86565b80601f01602080910402602001604051908101604052809291908181526020018280546103d990610c86565b80156104265780601f106103fb57610100808354040283529160200191610426565b820191906000526020600020905b81548152906001019060200180831161040957829003601f168201915b5050505050815260200160028201805461043f90610c86565b80601f016020809104026020016040519081016040528092919081815260200182805461046b90610c86565b80156104b85780601f1061048d576101008083540402835291602001916104b8565b820191906000526020600020905b81548152906001019060200180831161049b57829003601f168201915b505050505081526020016003820180546104d190610c86565b80601f01602080910402602001604051908101604052809291908181526020018280546104fd90610c86565b801561054a5780601f1061051f5761010080835404028352916020019161054a565b820191906000526020600020905b81548152906001019060200180831161052d57829003601f168201915b50505050508152505083838151811061056657610565610f3f565b5b602002602001018190525060018261057e9190610f9d565b91505b8080600101915050610295565b5081935050505090565b60606000805480602002602001604051908101604052809291908181526020016000905b828210156107fa57838290600052602060002090600402016040518060800160405290816000820160009054906101000a900473ffffffffffffffffffffffffffffffffffffffff1673ffffffffffffffffffffffffffffffffffffffff1673ffffffffffffffffffffffffffffffffffffffff16815260200160018201805461064590610c86565b80601f016020809104026020016040519081016040528092919081815260200182805461067190610c86565b80156106be5780601f10610693576101008083540402835291602001916106be565b820191906000526020600020905b8154815290600101906020018083116106a157829003601f168201915b505050505081526020016002820180546106d790610c86565b80601f016020809104026020016040519081016040528092919081815260200182805461070390610c86565b80156107505780601f1061072557610100808354040283529160200191610750565b820191906000526020600020905b81548152906001019060200180831161073357829003601f168201915b5050505050815260200160038201805461076990610c86565b80601f016020809104026020016040519081016040528092919081815260200182805461079590610c86565b80156107e25780601f106107b7576101008083540402835291602001916107e2565b820191906000526020600020905b8154815290600101906020018083116107c557829003601f168201915b505050505081525050815260200190600101906105bc565b50505050905090565b6040518060800160405280600073ffffffffffffffffffffffffffffffffffffffff1681526020016060815260200160608152602001606081525090565b6000604051905090565b600080fd5b600080fd5b600080fd5b600080fd5b6000601f19601f8301169050919050565b7f4e487b7100000000000000000000000000000000000000000000000000000000600052604160045260246000fd5b6108a88261085f565b810181811067ffffffffffffffff821117156108c7576108c6610870565b5b80604052505050565b60006108da610841565b90506108e6828261089f565b919050565b600067ffffffffffffffff82111561090657610905610870565b5b61090f8261085f565b9050602081019050919050565b82818337600083830152505050565b600061093e610939846108eb565b6108d0565b90508281526020810184848401111561095a5761095961085a565b5b61096584828561091c565b509392505050565b600082601f83011261098257610981610855565b5b813561099284826020860161092b565b91505092915050565b6000806000606084860312156109b4576109b361084b565b5b600084013567ffffffffffffffff8111156109d2576109d1610850565b5b6109de8682870161096d565b935050602084013567ffffffffffffffff8111156109ff576109fe610850565b5b610a0b8682870161096d565b925050604084013567ffffffffffffffff811115610a2c57610a2b610850565b5b610a388682870161096d565b9150509250925092565b600081519050919050565b600082825260208201905092915050565b6000819050602082019050919050565b600073ffffffffffffffffffffffffffffffffffffffff82169050919050565b6000610a9982610a6e565b9050919050565b610aa981610a8e565b82525050565b600081519050919050565b600082825260208201905092915050565b60005b83811015610ae9578082015181840152602081019050610ace565b60008484015250505050565b6000610b0082610aaf565b610b0a8185610aba565b9350610b1a818560208601610acb565b610b238161085f565b840191505092915050565b6000608083016000830151610b466000860182610aa0565b5060208301518482036020860152610b5e8282610af5565b91505060408301518482036040860152610b788282610af5565b91505060608301518482036060860152610b928282610af5565b9150508091505092915050565b6000610bab8383610b2e565b905092915050565b6000602082019050919050565b6000610bcb82610a42565b610bd58185610a4d565b935083602082028501610be785610a5e565b8060005b85811015610c235784840389528151610c048582610b9f565b9450610c0f83610bb3565b925060208a01995050600181019050610beb565b50829750879550505050505092915050565b60006020820190508181036000830152610c4f8184610bc0565b905092915050565b7f4e487b7100000000000000000000000000000000000000000000000000000000600052602260045260246000fd5b60006002820490506001821680610c9e57607f821691505b602082108103610cb157610cb0610c57565b5b50919050565b60008190508160005260206000209050919050565b60006020601f8301049050919050565b600082821b905092915050565b600060088302610d197fffffffffffffffffffffffffffffffffffffffffffffffffffffffffffffffff82610cdc565b610d238683610cdc565b95508019841693508086168417925050509392505050565b6000819050919050565b6000819050919050565b6000610d6a610d65610d6084610d3b565b610d45565b610d3b565b9050919050565b6000819050919050565b610d8483610d4f565b610d98610d9082610d71565b848454610ce9565b825550505050565b600090565b610dad610da0565b610db8818484610d7b565b505050565b5b81811015610ddc57610dd1600082610da5565b600181019050610dbe565b5050565b601f821115610e2157610df281610cb7565b610dfb84610ccc565b81016020851015610e0a578190505b610e1e610e1685610ccc565b830182610dbd565b50505b505050565b600082821c905092915050565b6000610e4460001984600802610e26565b1980831691505092915050565b6000610e5d8383610e33565b9150826002028217905092915050565b610e7682610aaf565b67ffffffffffffffff811115610e8f57610e8e610870565b5b610e998254610c86565b610ea4828285610de0565b600060209050601f831160018114610ed75760008415610ec5578287015190505b610ecf8582610e51565b865550610f37565b601f198416610ee586610cb7565b60005b82811015610f0d57848901518255600182019150602085019450602081019050610ee8565b86831015610f2a5784890151610f26601f891682610e33565b8355505b6001600288020188555050505b505050505050565b7f4e487b7100000000000000000000000000000000000000000000000000000000600052603260045260246000fd5b7f4e487b7100000000000000000000000000000000000000000000000000000000600052601160045260246000fd5b6000610fa882610d3b565b9150610fb383610d3b565b9250828201905080821115610fcb57610fca610f6e565b5b9291505056fea264697066735822122068a4fb9666eca59420086250350ffc6ae11eec082551079df873570ed68a2d3864736f6c63430008180033",
  "linkReferences": {},
  "deployedLinkReferences": {}
}